:100000000C94FE020C9445030C9445030C94450398
:100010000C9445030C9445030C9445030C94450340
:100020000C9445030C9445030C9483250C94802276
:100030000C947B260C9445030C9445030C944503C7
:100040000C9445030C9445030C9445030C94450310
:100050000C9445030C9457260C9445030C944503CB
:100060000C9445030C9444300C941D300C944503BF
:100070000C9445030C9445030C9445030C944503E0
:100080000C9445030C9445030C9445030C944503D0
:100090000C9445030C9445030C9445030C944503C0
:1000A0000C9445030C9445030C9445030501098009
:1000B000A101850319012AB700150126B700950192
:1000C00075108100C0050C0901A101850419012AE0
:1000D000A002150126A002950175108100C00660DE
:1000E000FF0961A1010962150026FF00952075082E
:1000F00081020963150026FF00952075089102C052
:1001000005010906A101050719E029E715002501E8
:10011000950875018102950175088101050719008F
:1001200029FF150026FF00950675088100050819AE
:10013000012905950575019102950175039101C08D
:100140000D0A002D0041542B424C454B4559424F5E
:10015000415244434F44453D000D0A0041542B4257
:100160004C45484944434F4E54524F4C4B45593DE2
:1001700030780041542B48574144433D360D0A0026
:1001800041542B42415544524154453D3736383055
:10019000300D0A0041545A0D0A0041542B4741507A
:1001A0004445564E414D453D42494F49204331312A
:1001B00020424C450D0A0041542B48574D4F4445B1
:1001C0004C45443D44495341424C450D0A0041547D
:1001D0002B424C45504F5745524C4556454C3D34AB
:1001E0000D0A0041542B424C454B4559424F415258
:1001F00044454E3D310D0A0041542B424C4542418D
:100200005454454E3D310D0A0041542B424C454853
:100210004944454E3D310D0A0041542B4857475043
:10022000494F4D4F44453D352C300D0A0041544552
:100230003D300D0A0041542B464143544F52595210
:10024000455345540D0A000D0A000D0A000D0A0021
:1002500041542B42415544524154453D393630308A
:100260000D0A000D0A0041542B424155445241549D
:10027000453D393630300D0A000D0A0041542B42FD
:10028000415544524154453D393630300D0A000D38
:100290000A0041542B42415544524154453D3936A0
:1002A00030300D0A000D0A000D0A000D0A004154FD
:1002B0002B42415544524154453D393630300D0AA8
:1002C000000D0A000D0A000D0A000D0A0041542B12
:1002D000424C454B4559424F415244434F44453DA2
:1002E00030302D30300D0A0041542B424C454B45E7
:1002F00059424F415244434F44453D30302D3030F8
:100300000D0A0041542B424C454B4559424F415236
:1003100044434F44453D30302D30300D0A000D0A26
:10032000000D0A000D0A0000010101010101010197
:100330000102020202020202020203030303030398
:100340000303040404040404040505050505060666
:100350000606060707070707080808080909090924
:100360000A0A0A0B0B0B0C0C0C0D0D0D0E0E0E0FCA
:100370000F0F10101111111212131314141515165A
:10038000161717181819191A1A1B1B1C1D1D1E1ECB
:100390001F2020212222232424252626272829291C
:1003A0002A2B2C2D2D2E2F30313232333435363747
:1003B00038393A3B3C3D3E3F404142434445464745
:1003C00048494A4C4D4E4F50515354555658595A1E
:1003D0005B5D5E5F616264656668696B6C6D6F70C2
:1003E00072737577787A7B7D7E8082838587888A31
:1003F0008C8E8F91939596989A9C9EA0A2A3A5A768
:10040000A9ABADAFB1B3B5B7BABCBEC0C2C4C6C963
:10041000CBCDCFD1D4D6D8DBDDDFE2E4E7E9EBEE1C
:10042000F0F3F5F8FAFDFF3A003B003C003D003EDA
:10043000003F004000410042004300440000000132
:1004400000010001000100010001000100010001A4
:100450000001000100000001000100010001000195
:100460000001000100010001000100010000000185
:100470000001000100010001000100010001000174
:10048000000100010000000000000000000000006A
:10049000000000000000000000000000000000005C
:1004A00000000000000000000000007E0F00D4FFEC
:1004B000FFFFC70000007800000000000000002AD5
:1004C0002B280000000000000000000000000000D9
:1004D000000029000000002C1E3420212224342694
:1004E00027252E362D3738271E1F2021222324258D
:1004F000263333362E37381F0405060708090A0B42
:100500000C0D0E0F101112131415161718191A1BB3
:100510001C1D2F3130232D350405060708090A0B51
:100520000C0D0E0F101112131415161718191A1B93
:100530001C1D2F3130354C41542B424C4542415407
:100540005456414C3D3130300D0A0009025B000326
:100550000100A0FA090400000103010100092111B2
:100560000100012240000705810308000A09040177
:1005700000020300000009211101000122220007EE
:10058000058203200001070503032000010904027E
:1005900000010300000009211101000122320007BF
:1005A00005840320000A12011001000000080181E7
:1005B00011430100010200011203420049004F00F3
:1005C0004900200043003100310000002A034200AE
:1005D0006100730069006300200049004F002000A3
:1005E00049006E0073007400720075006D006500B4
:1005F0006E007400730000000403090411241FBE80
:10060000CFEFDAE0DEBFCDBF04B603FE27C0809196
:10061000160390911703A0911803B0911903873026
:10062000904BA740B04BD1F41092160310921703D1
:10063000109218031092190314BE84B7877F84BFE9
:100640000FB6F894A895809160008861809360004F
:10065000109260000FBEE0E0F8E3099523E0A4ECFF
:10066000B1E001C01D92A631B207E1F711E0A0E0B0
:10067000B1E0E6E4FEE602C005900D92A43CB107AD
:10068000D9F70E949E260C9466360C940000E8ED83
:10069000F0E080818E7F80831092E2001092DA0079
:1006A0001092E100A0EEB0E08C9181608C9380818B
:1006B0008F77808319BCA7EDB0E08C918E7F8C93EF
:1006C00080818F7E80831092BB0208952091E40088
:1006D0003091E50095E6A9012091EC00822F817010
:1006E00020FF06C08091E80080FF06C080E00895EA
:1006F0002091E80022FD1AC08091C802882389F069
:10070000853089F08091EB0085FD0FC02091E400D9
:100710003091E50042175307F9F29150E1F684E079
:10072000089582E0089583E0089581E00895EF92AE
:10073000FF920F931F93CF937C018B010E9466035E
:10074000C82F811117C08091E80085FD0BC08091F2
:10075000E8008E778093E8000E946603882399F36F
:10076000C82F08C0F70181917F018093F1000150EB
:10077000110949F78C2FCF911F910F91FF90EF90A6
:1007800008958091CA0287FF13C08091E80082FF1C
:1007900006C08091E8008B778093E80004C08091C8
:1007A000C8028111F2CF08958091C8028823D9F33D
:1007B0008091E80080FFF8CF8091E8008E77ECCF41
:1007C000982F9093E900242F762F50E0891731F06D
:1007D0007091EC002091ED005091F00021FD07C0D8
:1007E0009F5F973071F78093E90081E00895309121
:1007F000EB003E7F3093EB003091ED003D7F309376
:10080000ED003091EB0031603093EB007093EC0021
:100810002093ED005093F0002091EE0027FDE0CFF3
:1008200080E00895CF92DF92EF92FF920F931F9393
:10083000CF93DF93C8EDD0E088818F7E8883E7ED8A
:10084000F0E080818160808384E082BF81E08093DA
:10085000BB0288818E7F888302EE10E0F80110824F
:100860001092DA0081EEC82ED12CF6011082888118
:100870008F77888388818068888388818F7D88834B
:1008800019BC1092C8021092C9021092C7021092AD
:10089000C60290EEE92EF12CF70180818B7F8083D8
:1008A00088818160888342E060E080E00E94E0030C
:1008B000F60180818E7F8083F80180818160808352
:1008C000808188608083F70180818E7F808388812A
:1008D00080618883DF91CF911F910F91FF90EF90FE
:1008E000DF90CF900895FC018091D0029091D102C9
:1008F00086179707A0F06115710529F49091E8001B
:100900009E779093E80090E06115710551F4911184
:1009100008C08091E80082FF34C080E00895BC01E7
:10092000F2CF8091C8028823C1F18530C1F1809156
:10093000E80083FD30C08091E80082FDEACF80911D
:10094000E80080FFE1CF8091F3002091F200382F82
:100950006115710519F02830310558F091E0283003
:10096000310509F090E02091E8002E772093E8000F
:10097000CBCF81918093F100615071092F5F3F4F80
:10098000E7CF8091C802882341F0853041F0809103
:10099000E80083FFBECF81E0089582E0089583E000
:1009A0000895089508958091BD0208952FB7F89491
:1009B00060910B0370910C0380910D0390910E03D5
:1009C0002FBF08952FB7F89480910B0390910C03DB
:1009D000A0910D03B0910E032FBF0895882339F124
:1009E00081E0809315030E94E204909314038093A6
:1009F000130320911303309114034FB7F89480919F
:100A00000B0390910C03A0910D03B0910E034FBF07
:100A1000821B930B069778F08091110380930F034C
:100A200080911203809310031092150304C08091EB
:100A300015038111DECF089580E008958091B602FC
:100A400081111092B60208958091B5029091B4027E
:100A5000892B9091B302892B8093C6019091B602A5
:100A6000992391F0892B8093C60120E088EC91E0D6
:100A7000FC013191CF0131112F5FF1E08E3C9F07D6
:100A8000B9F721110E941E05E091B102F091B20266
:100A9000309731F00280F381E02D86EC91E00994EB
:100AA0000895E8ECF1E09191891303C0DF011197FB
:100AB0001C9291E0EE3CF907B1F70895A8ECB1E083
:100AC000EFEF90E02D91821751F0EF3F19F42111D3
:100AD00001C0E92F9F5F9630A9F7EF3F09F4089511
:100AE0000E2E000CFF0BEA53FE4F82830895E92F70
:100AF000EE0FE90FEE0F8E0F982F97708695869563
:100B0000869525E0829FF0011124EA55FD4F50E0C3
:100B100040E080E0219130E0092E02C03695279513
:100B20000A94E2F721703327042E01C0220F0A94A1
:100B3000EAF7822B4F5F5F4F4530510559F7089513
:100B4000E92FEE0FE90FEE0F8E0F982F977041E00F
:100B500001C0440F9A95EAF786958695869595E0AB
:100B6000899FF0011124EA55FD4F30E020E070E04C
:100B70005191DF011197CB01022E02C09695879506
:100B80000A94E2F7817081958527842385278C93C9
:100B90002F5F3F4F2530310559F708958091A50209
:100BA00090917402981301C008958F5F8770FACFF7
:100BB000882341F080959091B50289238093B502F6
:100BC0000C9424050895882339F09091B502982B50
:100BD0009093B5020C9424050895209168023091F9
:100BE00069022817390771F09093690280936802AF
:100BF000E091B102F091B202309721F00084F185CA
:100C0000E02D09940895209166023091670228171B
:100C1000390771F09093670280936602E091B10208
:100C2000F091B202309721F00680F781E02D09940F
:100C3000089590E080E00E94030690E080E00E942A
:100C4000ED051092B4021092B3020C942405609347
:100C5000FF027093000380930103909302030C94AE
:100C600019060F931F936091FF027091000380910A
:100C70000103909102038B019C010670112722272A
:100C80003327063011052105310529F468601F91CD
:100C90000F910C942706677FFACF0F931F9341E0C3
:100CA00050E060E070E004C0440F551F661F771FDE
:100CB0008A95D2F7CB01BA01609570958095909591
:100CC0000091FF0210910003209101033091020373
:100CD00060237123822393231F910F910C94270685
:100CE0009091B002809589238093B002282F2770BD
:100CF00071F4282F082E000C330B9217130639F0CD
:100D00008595859585950E944D061092B0020895AF
:100D10000F931F9341E050E060E070E004C0440F87
:100D2000551F661F771F8A95D2F78091FF02909119
:100D30000003A0910103B09102038A019B01082BDB
:100D4000192B2A2B3B2BC901B8011F910F910C9431
:100D500027066093B7027093B8028093B90290930C
:100D6000BA020C941906E091B102F091B2023097E8
:100D700021F00190F081E02D099480E0089588230E
:100D800009F452C0823871F40E94B30681FF4CC04E
:100D900089E30E945E050E94240589E30E945105B3
:100DA0000C942405833859F40E94B30680FF3CC09C
:100DB00083E50E945E050E94240583E5EFCF843819
:100DC00059F40E94B30682FF2FC087E40E945E059B
:100DD0000E94240587E4E2CF9CEF980F913AF0F24D
:100DE00090E2980F983088F4877021E030E0A901F4
:100DF00002C0440F551F8A95E2F7CA018095909171
:100E0000B50289238093B502CBCF9BE5980F933031
:100E100020F490E080E00C940306885A873120F497
:100E200090E080E00C94ED050895FA01811101C075
:100E3000FB010994E5E4F2E0818360834283339609
:100E400092E0E636F907C1F70895FC01EE0FFF1FA7
:100E5000E80FF91FEB5BFD4F618340832283089508
:100E60000C941A070C942507EF92FF920F939701A9
:100E7000201B31092F3F310519F010F02FEF30E022
:100E80002095382F320F08F43FEF832F0F91FF90FA
:100E9000EF900895EF92FF920F939701201B310975
:100EA0002F3F310519F010F02FEF30E0322F309541
:100EB000482F430F08F44FEF842F620F0F91FF90DC
:100EC000EF900895EF92FF920F93972F093438F423
:100ED000B701601B71096F3F710519F010F06FEFDA
:100EE00070E0485F5F4F4131510540F0A901485F14
:100EF0005F4F4131510510F06FEF70E06095482F62
:100F0000460F08F44FEF842F37FF02C02D5F3F4F8D
:100F1000359527953595279560910703620F792FB1
:100F20000F91FF90EF900895EF92FF920F931F9310
:100F30000E0D1F2D111DF90137FF03C0F195E1952D
:100F4000F10924E0EE0FFF1F2A95E1F7EF3FF105CD
:100F500019F014F0EFEFF0E09A0157FF03C031955C
:100F60002195310994E0220F331F9A95E1F72E174E
:100F70003F070CF4F901E00FF11FEF3FF10519F005
:100F800010F0EFEFF0E0E095282F3E2F230F08F44C
:100F90002FEF822F1F910F91FF90EF900895EF9206
:100FA000FF920F93970195E0099F200D311D1124A9
:100FB0002F3F310519F010F02FEF30E02095382F3A
:100FC000320F08F43FEF832F0F91FF90EF900895B9
:100FD00022E8241B08F420E0620F08954095282F92
:100FE000429F412D1124842F0895E42FF0E0EE0F4D
:100FF000FF1FED55FE4F9081921B97FD9195292F74
:1010000038E1239F212D1124620F08950F931F9320
:1010100010E0F801EE0FFF1FED55FE4F9081905745
:1010200097FD9195000F111FF801E956FE4F0585B8
:101030000052110B2003F001219FF00D112408E351
:1010400010E0091B110997FD139540039001419F82
:10105000300D1124E20FF31F9F01220F331F2E0FBB
:101060003F1F37FF02C021583F4F220F232F221F5F
:10107000330B620F1F910F9108950F931F93522FFF
:1010800010E0F801EE0FFF1FE956FE4FA585A052B4
:10109000BB0B9D015203F001539FF00D1124000F73
:1010A000111FD801AD55BE4F0C910057110B4003D5
:1010B0009001419F300D11242E0F3F1F37FF02C0BA
:1010C000215C3F4F96E0359527959A95E1F7620FA1
:1010D0001F910F9108950F931F93522F10E0F80165
:1010E000EE0FFF1FE956FE4FA585A052BB0B9D01D9
:1010F0005203F001539FF00D1124000F111FD8016E
:10110000AD55BE4F0C910057110B40039001419F0C
:10111000300D11242E0F3F1F37FF02C021583F4FC3
:10112000220F232F221F330B620F1F910F9108955F
:10113000EF920F93972F23E0029FB0011124759532
:1011400067956E0D792F0F91EF900895322F50E033
:10115000FA01EE0FFF1FE956FE4F9585905297FD5D
:101160009195440F551FFA01ED55FE4F2081231B29
:10117000330B290F311D97FD3A95620F0895E42F27
:10118000F0E0EE0FFF1FE956FE4F6585621B0895E4
:10119000E42FF0E0EE0FFF1FED55FE4F6081621B64
:1011A0000895622F0895E42FF0E0EE0FFF1FED5534
:1011B000FE4F408134EE439F412D1124E82FF0E093
:1011C00050E0445E5F4FDA01A21BB1099D01B7FFF9
:1011D00003C031952195310993E0220F331F9A9571
:1011E000E1F7AF01421B530B9A0157FD20E0582F46
:1011F000259F212D1124822F0895E42FF0E0EE0F7A
:10120000FF1FED55FE4F408134EE439F412D1124C9
:10121000E72FF0E050E0445E5F4FDA01A21BB10916
:101220009D01B7FF03C031952195310993E0220F4D
:10123000331F9A95E1F7AF01421B530B9A0157FDFB
:1012400020E0279F212D1124722F0895FC019B017E
:10125000009729F480E077FF2BC080E80895AC0167
:1012600097FF04C044275527481B590BB901640F49
:10127000751F37FD10C0241B350BC901A5E0880F71
:10128000991FAA95E1F70E94883080E2861BF7FF3C
:101290000FC081950895CB0165E0880F991F6A956D
:1012A000E1F7BA01621B730B0E94883080E6EECF33
:1012B0000895EF920F93CF93DF93D72FC82FC901D3
:1012C0000E19BA010E942609602F681B7D2F8C2FF2
:1012D000DF91CF910F91EF9008950F93CF93DF930C
:1012E000D72FC82FC901BA010E942609682F600FA5
:1012F0007D2F8C2FDF91CF910F910895EF920F9357
:101300001F93CF93DF93D62FC72F182FC9010E1924
:10131000010FBA010E942609081B202F219F212DB1
:101320001124822F6D2F7C2FDF91CF911F910F9170
:10133000EF900895EF920F931F93CF93DF93D62FE3
:10134000172FC82FC9010E19070FBA010E942609CD
:10135000702F781B719F712D11246D2F8C2FDF91B1
:10136000CF911F910F91EF9008950F931F93CF93FB
:10137000DF93D62FC72F182FC901212F201B022F33
:10138000BA010E942609982F990F990F891B800F87
:10139000282F219F212D1124822F6D2F7C2FDF914B
:1013A000CF911F910F9108950F931F93CF93DF93C8
:1013B000D62F172FC82FC901272F201B022FBA01A4
:1013C0000E942609982F990F990F782F791B700F7B
:1013D000719F712D11246D2F8C2FDF91CF911F9153
:1013E0000F910895E82F86FDE0952E2F2F7086FD32
:1013F0002F5FE695E695E695E670F0E0E15BFE4F3F
:101400009181929F902D212D112492959F7022956C
:10141000207F922B2081920F87FD919580E8890F84
:1014200008950F931F93CF93DF938B01D82FC42F71
:10143000822F0E94F209EC2FF0E0EE0FFF1FED5516
:10144000FE4F90819058890F87FD8195880F682FF6
:101450002CE0629F612D1124600F712F8D2FDF9181
:10146000CF911F910F910895AC018230910508F43E
:1014700008959FEF413E8EE1580740F49A0195E0B0
:10148000369527959A95E1F798E0920F61E0E62F5F
:10149000E90FFF27FF1F9F0135952795822F229F78
:1014A000F001239FF00DF00D11244E175F0738F463
:1014B0009FEF920F961758F78FEF860F08952F3FE3
:1014C000E9F361E0620FF6CF0F93CF93DF93D72F4D
:1014D000C82F47FD419588E390E0841B910947FDA3
:1014E0009395889FB001899F700D700D1124229FE4
:1014F000C001239F900D900D1124860F971F0E940D
:10150000340A982F990F890F682F600F7D2F8C2F29
:10151000DF91CF910F91089530E020E0869F212D3B
:10152000969F200D311D1124C9010895AF92BF92DD
:10153000CF92DF92FF920F931F93CF93DF93362FBB
:10154000472FE82FF0E0E95DFC4F71110FC0E491E7
:101550008E2F2E2F6E2F722FDF91CF911F910F9113
:10156000FF90DF90CF90BF90AF900895C72FD0E04D
:101570002491F22E022F10E056E0659FC001112445
:10158000EFEFF0E0BF010E947430832F90E0880FEE
:10159000991F35E5369FD001379FB00D11248A1B66
:1015A0009B0B982F990F980F6F01CC1ADD0AC09EE4
:1015B000D001C19EB00DD09EB00D11248B2F499F3C
:1015C000A0011124452F55276F01C41AD50AC09ECA
:1015D000A001C19E500DD09E500D11245F01A91A8B
:1015E000B108AC9E6001AD9ED00CBC9ED00C112405
:1015F000CD2CDD24EC19FD09E09FE001E19FD00D29
:10160000F09FD00D1124ED2F62307105A1F050F440
:101610006115710509F49ECF6130710581F0EB2FE2
:10162000852F98CF6430710569F080F066307105C0
:1016300009F490CFF4CFE22F2B2F8D2F8BCFE22FF9
:10164000252F88CFEB2F822F2D2F84CF2B2F8F2D5F
:10165000E52F80CF2F923F925F926F927F928F9271
:101660009F92AF92BF92CF92DF92EF92FF920F9331
:101670001F93CF93DF93CDB7DEB72A970FB6F894B9
:10168000DEBF0FBECDBF8B837E836D8380911B0138
:10169000282F220F280F2F832D5F29832A832C3098
:1016A00010F03BE03A838091D6028C83FF81EF2FCC
:1016B000F0E0FA87E987CF01880F991F9C0129562E
:1016C0003E4F69013B81832F90E0FC013196F88702
:1016D000EF838A8199859817E8F081E0E981EB3002
:1016E00008F080E02A960FB6F894DEBF0FBECDBF9B
:1016F000DF91CF911F910F91FF90EF90DF90CF90EE
:10170000BF90AF909F908F907F906F905F903F9031
:101710002F900895E985FA85E956FE4F82A19091B0
:101720001C018923F1F020900703309008032F81DA
:1017300038852A523D4F39015B8010E0FC815F16ED
:10174000D0F020910903129F112D1124B101812F96
:101750000E94960A462F282F672F89859A850E9416
:10176000320729853A852F5F3F4F3A87298732E034
:10177000C30ED11CAECFF30181913F01F601A484C9
:10178000A81ABB088584F3018781881A9908AA9C46
:101790009001AB9C300D300D1124889CC001899CB8
:1017A000900D900D1124820F931F0E94340A082F70
:1017B000F301EE0FFF1FE65DF24060910A03858999
:1017C00096890E948C0A7C019401A501B101812FA8
:1017D000ED81FE8109951B015394182FAFCFCF9255
:1017E000DF92EF92FF920F931F93CF93DF937C01D1
:1017F00080911B01C82FCC0FC80F23E0D22EDC0E26
:10180000CD2C8BE08D1510F49BE0C92E20910A039E
:1018100030E050E040E06FEF7FEF80E090E00E942A
:1018200060348901D0E02C2FCC1570F081E0FAE013
:10183000FD1508F480E0DF91CF911F910F91FF908B
:10184000EF90DF90CF900895FE01E956FE4F82A100
:1018500090911C018923F1F04091D6024150042E51
:10186000000C550B47FF18C0C80160910A030E9485
:101870008C0AAC0160910703709108038091090301
:10188000F70109950E94960A462F282F672FCE014F
:101890000E9432072196C7CFFA01EA52FD4F818993
:1018A00082130AC0FA01EE0FFF1FEA52FD4F818D2D
:1018B000928D80179107C8F241505109D3CFDF9222
:1018C000EF92FF920F931F93CF93DF937C01809150
:1018D0001B01C82FCC0FC80F13E01C0F012F1C30A9
:1018E00008F00BE060910A03669566958091D2023C
:1018F0009091D3020E948C0AD82ED0E0C01760F0DD
:1019000081E01B3008F080E0DF91CF911F910F91B3
:10191000FF90EF90DF900895FE01E956FE4F82A1FF
:1019200090911C01892391F0609107037091080345
:10193000809109032D2D4C2FF70109950E94960ADD
:10194000462F282F672FCE010E9432072196D6CF2F
:101950009F92AF92BF92CF92DF92EF92FF920F933E
:101960001F93CF93DF936C0180911B01C82FCC0F85
:10197000C80F13E01C0FB12E1C3010F03BE0B32E4B
:1019800060910A03669566958091D2029091D30288
:101990000E948C0AF82E80E48F0D0E94F20990E8D4
:1019A000A92EA80E8F2D0E94F20920E8922E980EE3
:1019B000D0E0CB1580F081E01B3008F080E0DF91B3
:1019C000CF911F910F91FF90EF90DF90CF90BF903C
:1019D000AF909F900895FE01E956FE4F82A190912D
:1019E0001C018923A1F06091070370910803809185
:1019F0000903EF2C0C2F292D4A2DF60109950E9481
:101A0000960A462F282F672FCE010E943207219673
:101A1000D0CF5F926F927F928F929F92AF92BF9240
:101A2000CF92DF92EF92FF920F931F93CF93DF93AA
:101A30003C0180911B01C82FCC0FC80F13E01C0F75
:101A4000F12E1C3010F03BE0F32E60910A036695F6
:101A50008091D2029091D3020E948C0A582ED0E03D
:101A6000CE01880F991F9C0129563E4F6901CF1561
:101A7000A0F081E01B3008F080E0DF91CF911F9152
:101A80000F91FF90EF90DF90CF90BF90AF909F901D
:101A90008F907F906F905F900895FE01E956FE4F02
:101AA00082A190911C01892379F1F6018485282F68
:101AB0002057330B59018585E82FE052FF0B4F016A
:101AC000AA9C9001AB9C300D300D1124EE9FC001FB
:101AD000EF9F900D900D1124820F931F0E94340AE6
:101AE000082F609107037091080380910903E52C8A
:101AF0009401A501F30109950E94960A462F282F0B
:101B0000672FCE010E943207F2E0CF0ED11C219642
:101B1000AECFAF92BF92CF92DF92EF92FF920F9330
:101B20001F93CF93DF936C0180911B01C82FCC0FC3
:101B3000C80F13E01C0FB12E1C3010F03BE0B32E89
:101B400060910A0366958091D2029091D3020E941F
:101B50008C0AA82ED0E0CE01880F991F9C0129562F
:101B60003E4F7901CB1578F081E01B3008F080E022
:101B7000DF91CF911F910F91FF90EF90DF90CF9069
:101B8000BF90AF900895FE01E956FE4F82A190915B
:101B90001C018923C1F0F70125852052330B4485B0
:101BA0004057550B6091070370910803809109031A
:101BB0000A2DF60109950E94960A462F282F672FB5
:101BC000CE010E943207F2E0EF0EF11C2196CACF3F
:101BD00078940895F894E82FE295EF70F0E031A141
:101BE000282F2F7081E090E001C0880F2A95EAF736
:101BF000982F9095932391A392A1892B82A30C9463
:101C0000E80D90916A0292FF06C0282F28712830B3
:101C1000F9F4877F846093FF06C0282F287128314C
:101C2000F1F4877E846120916B0220FF06C0382F7B
:101C300038713830D9F4877F816021FF06C0282FA2
:101C400028712831D1F4877E816194FD877E0895C3
:101C5000282F24712430F9F68B7F8860DCCF282F61
:101C60002471243101F78B7E8861DDCF382F3171EB
:101C7000313019F78E7F8860E0CF282F2171213114
:101C800021F78E7E8861E1CF0E94D6046093FA012D
:101C90007093FB018093FC019093FD01089580E80F
:101CA00090E00FB6F89480936100909361000FBEAE
:101CB0000895E4E6F0E08081877F808380818F7BD8
:101CC0008083A5E6B0E08C91877F8C93A8EDB0E08F
:101CD0008C9180688C9389B5826089BD8C918F7D51
:101CE0008C9380818E7F808380818F7780838081B9
:101CF0008B7F808380818D7F80830895E4E6F0E090
:101D0000808181608083808180688083808184601D
:101D10008083808182608083E8EDF0E08081806252
:101D2000808389B58D7F89BD80818F778083089579
:101D3000089580E008952091DF0130E02F5F3F4F4C
:101D40002F7033279091DE0192171306D9F3F90112
:101D5000E253FE4F80832093DF018091C9008062AF
:101D60008093C9000895CF93DF93EC01FE01849125
:101D70002196811103C0DF91CF9108950E949B0E9F
:101D8000F5CFCF93DF93EC01F8941092DF0110921E
:101D9000DE011092F4011092F3010E94E80D82E03E
:101DA0008093C8001092CD00DF77C093CC0088E903
:101DB0008093C90086E08093CA00DF91CF91089597
:101DC000CF93DF9300D00F92CDB7DEB79091C802CA
:101DD000943011F589837B836A839093E9008FEFB8
:101DE0009091E800815095FD06C09AE69A95F1F72A
:101DF00000C08111F5CF8091E80085FF0DC050E053
:101E000040E063E070E0CE0101960E94970380916C
:101E1000E8008E778093E8000F900F900F90DF918D
:101E2000CF910895BC0184E00C94E00EBC0183E0E6
:101E30000C94E00ECF93DF93EC0181E08093E900F6
:101E40008FEF9091E800815095FD06C09AE69A9533
:101E5000F1F700C08111F5CF8091E80085FF14C033
:101E600050E040E068E070E0CE010E94970380916E
:101E7000E8008E778093E80088E0FE01AEEBB2E0E8
:101E800001900D928A95E1F7DF91CF91089581E05D
:101E90008093E00080E28093D8001092C9008FE028
:101EA00097E20197F1F700C0000087E090EBDC01BA
:101EB0008093160390931703A0931803B09319030C
:101EC00088E19CE00FB6F894A895809360000FBE5F
:101ED00090936000FFCF279A35B13F7725B12068F6
:101EE0004FB7F89485E492E0FC015191CF0168E08E
:101EF00025B957FF35B9550F000000C035B96A95AF
:101F0000B9F7F2E086369F0779F74FBF8FE292E08C
:101F10000197F1F700C000000895BF92CF92DF92C1
:101F2000EF92FF920F931F93CF93DF9307E411E09B
:101F3000C1E1D3E0C12CD12CEE24E394F12CF801C3
:101F400081918F01F894E82FE295EF70F0E021A1E4
:101F50008F70A70102C0440F551F8A95E2F7CA018E
:101F6000922F982B91A392A18095892382A30E94FE
:101F7000E80D00C0E9E4F1E030E020E0B12C41914F
:101F8000A42FA295AF70B0E090968C9190E04F7026
:101F900002C0959587954A95E2F780FD31C08E2D58
:101FA000022E01C0880F0A94EAF7B82A2F5F3F4F2C
:101FB0002630310521F7F801319780810E94EA0D22
:101FC000C11003C050E55A95F1F78881B816D1F0D9
:101FD000B88281E0D82A219681E0C8120EC08D2DEA
:101FE0000E94EE048D2DDF91CF911F910F91FF90F4
:101FF000EF90DF90CF90BF900895CC24C3949FCFF3
:1020000080E0D3CF80E0E6CFCF93DF93C2E0D0E093
:1020100081EC92E00E94B30E2FEF80E792E0215016
:1020200080409040E1F700C000008EEA92E00E94FC
:10203000B30E2FEF80E792E0215080409040E1F70F
:1020400000C0000088E090E80E94C10E8BEA92E098
:102050000E94B30E88EA92E00E94B30E85EA92E0F5
:102060000E94B30E2FEF80E792E021508040904015
:10207000E1F700C0000082E992E00E94B30E2FEF6A
:1020800080E792E0215080409040E1F700C00000DE
:102090008CE090E80E94C10E8FE892E00E94B30E9F
:1020A0002FEF80E792E0215080409040E1F700C0A0
:1020B00000008CE792E00E94B30E2FEF80E792E0E1
:1020C000215080409040E1F700C0000080E190E89E
:1020D0000E94C10E89E792E00E94B30E2FEF80E7C5
:1020E00092E0215080409040E1F700C0000086E679
:1020F00092E00E94B30E2FEF80E792E021508040E3
:102100009040E1F700C0000089E190E80E94C10E14
:1021100083E692E00E94B30E2FEF80E792E0215019
:1021200080409040E1F700C0000080E592E00E940E
:10213000B30E2FEF80E792E0215080409040E1F70E
:1021400000C00000219709F0E5C087E690E80E94F2
:10215000C10E8DE492E00E94B30E2FEF80E792E073
:10216000215080409040E1F700C000008AE492E0F6
:102170000E94B30E2FEF80E792E021508040904004
:10218000E1F700C0000087E492E00E94B30E2FEF59
:1021900080E792E0215080409040E1F700C00000CD
:1021A00085E392E00E94B30E2FEF84E39CE0215080
:1021B00080409040E1F700C00000C2E0D0E08DE236
:1021C00092E00E94B30E2FEF80E792E02150804012
:1021D0009040E1F700C0000089E192E00E94B30E58
:1021E0002FEF80E792E0215080409040E1F700C05F
:1021F000000089E092E00E94B30E2FEF80E792E0AA
:10220000215080409040E1F700C0000088EF91E04D
:102210000E94B30E2FEF80E792E021508040904063
:10222000E1F700C0000083EE91E00E94B30E2FEFB3
:1022300080E792E0215080409040E1F700C000002C
:102240008EEC91E00E94B30E2FEF80E792E02150D8
:1022500080409040E1F700C0000087EB91E00E94D1
:10226000B30E2FEF80E792E0215080409040E1F7DD
:1022700000C00000219709F050C02FEF80E792E0E6
:10228000215080409040E1F700C000008AE991E0D1
:102290000E94B30E2FEF80E792E0215080409040E3
:1022A000E1F700C0000084E991E00E94B30E2FEF37
:1022B00084E39CE0215080409040E1F700C00000A2
:1022C00080E891E00E94B30E2FE78AE196E021506A
:1022D00080409040E1F700C0000080E891E00E945B
:1022E000B30E2FE78AE196E0215080409040E1F75D
:1022F00000C000008CE090E80E94C10E2FE78AE148
:1023000096E0215080409040E1F700C00000DF914E
:10231000CF910895C1E0D0E07BCEC1E0D0E04FCFB7
:10232000CF9384E090E00E941834C82F81E290E0BF
:102330000E941834982F8C2FCF9108950F931F93DC
:10234000CF93DF93C42FD0E0CC0FDD1F2CE0629F32
:10235000C00DD11D112438E1839FC00DD11D112462
:10236000CE0186960E941834082F10E0102F002707
:10237000CE0187960E9418349801282BC901DF915D
:10238000CF911F910F910895462F843038F4723009
:1023900028F4663018F4672F0C949E1190E080E0CA
:1023A0000895CF93DF930E94C411EC018238910508
:1023B000A9F1D8F58133910509F496C048F5893221
:1023C000910509F48AC08A9709F495C0C11522E5E0
:1023D000D20708F0B6C0C11531E5D30708F026C111
:1023E000C83ED10508F09CC0C03ED10560F5C83A92
:1023F000D10508F087C0C53AD10508F0EFC0C1305B
:10240000D10509F12097F9F0C430D105E0F440C0BE
:102410008533910509F45AC0C997C1F680916A02C3
:10242000837089F0C0EED0E00EC0833E910599F133
:1024300070F4803E910501F1823E910539F680915C
:102440006A0282FD21C0CE01DF91CF910895863EC0
:10245000910561F1873E910571F1843E910509F086
:10246000B5CF80916B0281FFEECF80916A02C7EEFB
:10247000D0E084FD0DC0E7CF80916A0280FD07C1E6
:1024800090916B0290FFDFCFC3EED0E084FFDBCFF3
:10249000D0E0C0E0D8CF80916A0282FDFBC090916D
:1024A0006B0290FDBFCF84FFCECFF2CF80916A0246
:1024B00083FDDDCFC8CF80916A0283FDEEC090918D
:1024C0006B0291FFF0CFC4EED0E0BDCF80916A02E5
:1024D00085FFB9CFC9E2D0E0B6CF80916A0285FF0F
:1024E000B2CFC5E3D0E0AFCF80916A0286FFABCF19
:1024F000CAE2D0E0A8CF80916A0286FFA4CFC1E3F0
:10250000D0E0A1CFCF3BD10518F6C85AD0E0CC0F10
:10251000DD1FC65ADE4F0990D881C02DD46493CFF9
:10252000C11540E5D40708F064C0C11580E4D807A0
:1025300008F05CC0CE019A9581159F4108F483CFC5
:10254000A7CFC11536E5D30718F5C11545E5D40762
:1025500008F084C0C11584E5D80708F07AC09C2F24
:10256000969596959E0123703327C115D34508F49F
:1025700062C0C1E0D0E002C0CC0FDD1F2A95E2F7B7
:1025800030E2939FC0011124C82BD92BDA685BCFAE
:10259000C1158AE5D80778F4C11599E5D90708F07F
:1025A00068C0C11528E5D20708F472CFDC2FCC270C
:1025B000C06FD06A48CFCE0190568115904208F086
:1025C00067CF8D2F8F710E94010E90E0982F882782
:1025D00088279F719C012C2BE90149C0C55AD0E086
:1025E000C95ADE4FC881D0E0D0642DCFDF70D06AE9
:1025F0002ACFCE01E4E096958795EA95E1F78370BE
:102600002C2F26952695237040E2249F90011124BB
:10261000382B8C2F8370C1E0D0E002C0CC0FDD1FBF
:102620008A95E2F7C22BD32BDC680DCFDC2FCC27A9
:10263000C16FD06A08CFC1E0D0E002C0CC0FDD1F6F
:102640002A95E2F720E2929FC0011124C82BD92BD2
:10265000EBCFDC2FCC27C46FD06AF5CE8C2F0E9435
:10266000010EC82FD0E0DC2FCC27CC27DF71D06241
:10267000EACE8C2F8F700E94010E34E0D695C7955C
:102680003A95E1F7CF709C2FEC01D069DCCEC9E31D
:10269000D0E0D9CEC2EED0E0D6CEC6EED0E0D3CEDA
:1026A000BF92CF92DF92EF92FF920F931F93CF933F
:1026B000DF938C01C090FF02D0900003E0900103F3
:1026C000F09002038091B7029091B802A091B902F4
:1026D000B091BA02C82AD92AEA2AFB2ACFE1D0E06F
:1026E000BC2ED701C6010C2E04C0B695A7959795B0
:1026F00087950A94D2F780FD0EC0219788F7B12CF8
:102700008B2DDF91CF911F910F91FF90EF90DF9074
:10271000CF90BF900895B8018C2F0E94D1110197DE
:1027200061F3EECFCF93DF93EC010E945013BE0113
:10273000DF91CF910C94D1110E949213292F2F7009
:1027400092959F7092509E3078F4E92FF0E0E8590E
:10275000F94C0C949C30803F19F020F4883E20F412
:1027600081E00895843FE1F380E00895883EC0F35E
:10277000813FD1F7F5CF822F86958695869508956E
:10278000CF93DF93C6E8D0E060E0CE010E943C34F6
:102790002196C11584E0D807B9F7DF91CF9108954C
:1027A0006F927F928F929F92AF92BF92CF92DF9261
:1027B000EF92FF920F931F93CF93DF9387E2C82E80
:1027C00084E0D82E9AE4E92EF12CE70168973601CF
:1027D0001BC0F50185909490692DC8010E943C347E
:1027E000682DC80101960E943C3482E0A80EB11CFD
:1027F0000E5F1F4FC017D10761F78CE0680E711C88
:102800002C96CE15DF0529F08E010C5011095301CD
:10281000E0CF7E0188E1E80EF11C88E1C80ED11CF2
:102820008AEAE816F10489F6DF91CF911F910F91A2
:10283000FF90EF90DF90CF90BF90AF909F908F90E0
:102840007F906F9008956BEE7EEF90E080E00E94A5
:102850005A3460E082E090E00E943C3460E083E023
:1028600090E00E943C341092B7021092B80210928D
:10287000B9021092BA0260E084E090E00E943C3419
:1028800060E081E290E00E943C3460E085E090E00E
:102890000E943C3460E086E090E00E943C346FEFA0
:1028A00087E090E00E943C3440E050E0BA0188E0CC
:1028B00090E00E944E3460E08DE090E00E943C3455
:1028C00040E050E0BA0188E190E00E944E3460E0C0
:1028D00087E190E00E943C3440E050E0BA018CE196
:1028E00090E00E944E3460E080E290E00E943C3430
:1028F00040E050E0BA0188E190E00E944E3440E0B0
:1029000050E0BA018FE090E00E944E3440E050E089
:10291000BA0183E190E00C944E341092B502E8ECD9
:10292000F1E086E0DF011D928A95E9F70C94190623
:102930000F931F9341E050E060E070E08A019B013B
:1029400004C0000F111F221F331F8A95D2F7C9013F
:10295000B8010E94A9061F910F910C948D14EBEF02
:10296000E80FEF3308F073C0F0E0EA58F94C0C942C
:102970009C300E94231481E008958091B1029091CF
:10298000B202009759F090934402809343020E9450
:102990008D141092B2021092B102EDCF80914302D9
:1029A000909144029093B2028093B102E4CF80915F
:1029B0004202807F8093420281E080936D020895FD
:1029C0000E948D142FE78AE196E0215080409040CC
:1029D000E1F700C000000E94470F90914202892F4A
:1029E0008E7F90FF81608093420280FDC4CF817F03
:1029F00080934202C0CF90914202892F8D7F91FF38
:102A000082608093420281FFB6CF80914202816052
:102A1000EFCF90914202892F8B7F92FF8460809349
:102A2000420282FDF2CFA7CF90914202892F877F89
:102A300093FF88608093420283FDE7CF9CCF80E0C4
:102A40000E94981498CF8953FBCF8D51F9CF80E025
:102A500008951F93CF93DF93EC01FC01E956FE4FDD
:102A600082A16823A1F00E942C31182F0E942C31E2
:102A7000612F782F809109030E94960A462F282FF4
:102A8000672FCE01DF91CF911F910C943207DF9118
:102A9000CF911F910895DF92EF92FF920F931F93B2
:102AA000CF93DF938C01FC01E956FE4F82A168238E
:102AB00081F1D0900803D0910903C0910703EC2E57
:102AC000F12C0E942C31282FC7018C549F4F68E6AF
:102AD00071E00E9488308E199F0997FD03969595A5
:102AE00087959595879523706C2F289F600D1124ED
:102AF0007D2D8D2F0E94960A462F282F672FC80103
:102B0000DF91CF911F910F91FF90EF90DF900C9488
:102B10003207DF91CF911F910F91FF90EF90DF90DF
:102B2000089545E050E06CE170E086E093E00C949D
:102B30002C3490910603937089F0811107C0946042
:102B40009093060310921E010C949115883210F098
:102B50009C69F6CF880F880F982BF2CF089580914B
:102B6000060386958695815009F487E20C949915A1
:102B700080910603869586958F5F883208F081E004
:102B80000C94991590910603937041F0809307037C
:102B900060930803409309030C9491150895E6E0AF
:102BA000F3E0438120E1421B08F440E0818162812F
:102BB00090E00C94C215E6E0F3E0438120E1420F7F
:102BC00008F44FEF8181628190E00C94C215E6E039
:102BD000F3E0628120E1621B08F460E081814381BF
:102BE00090E00C94C215E6E0F3E0628120E1620F10
:102BF00008F46FEF8181438190E00C94C215E6E008
:102C0000F3E08181438162818850990B0C94C21555
:102C1000E6E0F3E0818190E04381628108960C94C4
:102C2000C215E6E0F3E0248130E1230F08F42FEF32
:102C300024830C949115E6E0F3E0248130E1231B1A
:102C400008F420E024830C949115E6E0F3E085E39A
:102C5000808380911F0190912001A09121018183A7
:102C60009283A3838FE784830C949115CF93DF9392
:102C700000D00F92CDB7DEB71F928F938FE391E014
:102C80009F938F93CE0101969F938F930E947631ED
:102C900089810E949B0E8A810E949B0E0F900F904B
:102CA0000F900F900F900F900F900F900F90DF915B
:102CB000CF910895CF93DF93EC018091E001909143
:102CC000E1018C179D0709F469C0D093E101C0931D
:102CD000E001C23ED10509F445C0C93ED10509F461
:102CE00041C0CA3ED105F1F1C53BD105D9F1C63B82
:102CF000D105C1F1C73BD105A9F1CC3CD10509F4FF
:102D000041C0CD3CD10571F1C33881E0D80751F104
:102D1000CA3881E0D807C9F1C23981E0D80711F17A
:102D2000C43981E0D807A1F1C13282E0D80799F116
:102D3000C33282E0D807B1F0C43282E0D80791F004
:102D4000C53282E0D80771F0C63282E0D80751F070
:102D5000C73282E0D80731F0CA3282E0D80711F0DA
:102D6000D0E0C0E08CE591E00E94B30E8D2F0E9470
:102D700036168C2F0E94361689E591E0DF91CF91AF
:102D80000C94B30EC8EBD0E0EDCFCCE8D1E0EACFA5
:102D9000C6E9D1E0E7CFCFE1D2E0E4CFDF91CF9138
:102DA00008950F931F93CF93DF93D82FC92F85E4F6
:102DB00091E00E94B30E0D2F1C2FC0E0F80181910D
:102DC0008F010E943616C73021F083E491E00E9403
:102DD000B30ECF5FC83091F780E491E0DF91CF91DF
:102DE0001F910F910C94B30E8F929F92AF92BF924E
:102DF000CF92DF92EF92FF920F931F93CF93DF93C7
:102E0000CDB7DEB7EA970FB6F894DEBF0FBECDBFE1
:102E100019821BAA83E791E00E94B30ECE010196AE
:102E20007C015E0199E1A90EB11C9E2C8F2C6701DB
:102E3000EA14FB0489F0F8949091F4018091F30175
:102E4000981382C00E94E80D80E091E0D7018D9335
:102E50007D018D3009F090C0F6011082F8948091C8
:102E6000F3018093F4010E94E80D892D982D0E94B2
:102E70003C318C519340BC01990F880B990B0E94F7
:102E80006D3520E030E048EC52E40E94F93520E056
:102E900030E048EE52E40E94C3340E9435358E0182
:102EA0000D5C1F4F1616170684F47F936F9384E40E
:102EB00091E09F938F931F930F930E9476310F9011
:102EC0000F900F900F900F900F908FE0E6E2F1E0DF
:102ED000DE015A9601900D928A95E1F7FE01B996AE
:102EE0008AE0DF011D928A95E9F7B801CE014A9682
:102EF0000E946B3162E271E0CE014A960E946B3112
:102F00008E01065E1F4FF80181918F01811138C03B
:102F1000FFEF21EE84E0F15020408040E1F700C057
:102F20000000EA960FB6F894DEBF0FBECDBFDF916A
:102F3000CF911F910F91FF90EF90DF90CF90BF90B6
:102F4000AF909F908F9008950091F30110E00F5F74
:102F50001F4F0F7011270093F3010E94E80DF80135
:102F6000ED51FE4F80812091E20130E0322F222787
:102F7000820F932F911D6ACF8A3009F058CF6CCF02
:102F80000E949B0EC0CF8531B9F048F48A30F1F031
:102F90008B3009F443C0853091F080E008958B3187
:102FA00049F028F48931C9F70E94F41603C08F5202
:102FB000823098F781E008950E940410FBCF809141
:102FC000F90191E089278093F901F4CF889A8091E3
:102FD0000603837011F010921E01809106038C7F0E
:102FE000809306030E9491158FE090E00E942034A8
:102FF0007093F6018093F7019093F8016D7F6093D1
:10300000F5014091F5015091F6016091F701709141
:10301000F8018FE090E00E944E34CCCF88988091E8
:103020000603837011F410921E01809106038C7FB9
:103030008160809306030E9491158FE090E00E94CA
:1030400020347093F6018093F7019093F801626049
:10305000D6CFCF93C82F882309F4BAC08238C1F4E1
:103060000E94B30681FDB4C089E30E945E050E9400
:1030700024052FEF80E792E0215080409040E1F757
:1030800000C0000089E30E945105CF910C942405F3
:103090008338A1F40E94B30680FD9AC083E50E94A4
:1030A0005E050E9424052FEF80E792E021508040CA
:1030B0009040E1F700C0000083E5E5CF8438A1F43B
:1030C0000E94B30682FD84C087E40E945E050E94D0
:1030D00024052FEF80E792E0215080409040E1F7F7
:1030E00000C0000087E4CFCF8CEF8C0F813A08F04E
:1030F0003EC080916D02882329F0813009F1109241
:103100006D020FC08091B502823259F48C2F0E945B
:10311000C317811120C08C2F0E94AF14817009F059
:1031200057C0E8ECF1E08EEC91E02191C21709F470
:1031300049C08E179F07C9F78C2F0E945E05A5CF47
:103140008091B502823211F3C43171F038F4CB3082
:1031500049F080E0E3CF81E090E0E0CFC93221F098
:10316000C833B9F781E0DACF10926D02F2CF80E276
:103170008C0F883068F4C77021E030E001C0220F66
:10318000CA95EAF78091B502822B8093B5027DCF74
:10319000EBE5EC0FE33040F4F0E0E95AFE4F8081BC
:1031A00090E0CF910C940306C85AC73188F4EC2FF5
:1031B000F0E0EE0FFF1FE65AFE4F80819181CF9124
:1031C0000C94ED058C2F0E9451050E942405B4CF6C
:1031D000CF9108951F93CF93DF93182FD0E0C0E0D5
:1031E000893311F4C0E5D0E0812F0E94291820977F
:1031F00031F4812FDF91CF911F910C94BF068FEC9A
:1032000097E00197F1F700C000002197F0CF0F93EE
:103210001F93CF93DF93C62FD42F022FFC018281FF
:103220008823A1F0609305030E94E20490930403B5
:1032300080930303C77081E001C0880FCA95EAF745
:10324000DF91CF911F910F910C94E30580910503BD
:10325000681340C020910303309104034FB7F894E2
:1032600080910B0390910C03A0910D03B0910E037C
:103270004FBF821B930B883C910560F510E21D0F38
:103280006D17B9F080E2860F883040F4C77081E096
:1032900001C0880FCA95EAF70E94D805183048F493
:1032A00081E09D2F977001C0880F9A95EAF70E94E0
:1032B000E305802F0E94EA18183098F4D77081E057
:1032C00001C0880FDA95EAF7DF91CF911F910F9136
:1032D0000C94D805C77081E001C0880FCA95EAF741
:1032E000F3CFDF91CF911F910F9108953F924F92AD
:1032F0005F926F927F928F929F92AF92BF92CF9286
:10330000DF92EF92FF920F931F93CF93DF9300D042
:1033100000D00F92CDB7DEB78C01FC018381948180
:10332000892B31F08081918189238F3F09F04DC62F
:103330000F900F900F900F900F90DF91CF911F91F2
:103340000F91FF90EF90DF90CF90BF90AF909F9044
:103350008F907F906F905F904F903F9008950E9464
:103360005013F82E682F89819A810E94A0056981E7
:103370007A818F2D0E94C4117C01F80182818823FB
:1033800009F416C6970122513F452031310508F056
:10339000F8C58FEF93E00E941834FEEEEF0E56E86A
:1033A000852E912C882381F18091B002877009F4D9
:1033B000BFCFF8018281882309F4BACF82E00F9051
:1033C0000F900F900F900F90DF91CF911F910F9161
:1033D000FF90EF90DF90CF90BF90AF909F908F9035
:1033E0007F906F905F904F903F900C947006811487
:1033F00024E09206C9F2C4010E941834811101C070
:10340000EA943FEF831A930AE110F1CF1C821B82EA
:10341000442443944AE0342E74018FEFE81AF80AEA
:10342000C4010E94183489831A82882309F4BCCF0E
:103430009FEF980F933000F58A83498292E0890EBE
:10344000911CC7010E9418348B83882309F4ACCFE8
:10345000FE0131967F01F70120812223E9F221301C
:1034600009F049C091818281913041F4F2E0EF0E80
:10347000F11C0E94EA1809C04701EACF923049F4D2
:1034800022E0E20EF11C0E9429183FEFE31AF30A32
:10349000E2CF933031F432E0E30EF11C0E94BF061C
:1034A000F4CF943021F08FEFE81AF80AEECF92E0D3
:1034B000E90EF11C30E020E0B7016F5F7F4FF701AC
:1034C00041818053990B8A30910550F02150310988
:1034D000E0F28FEC97E00197F1F700C00000F6CF23
:1034E000329EF001339EF00D11249C012E0F3F1FE0
:1034F000842F7B01E1CFE22FF0E0E954FB4F5490A1
:10350000822F86958695869590E0FC01E955FB4FC4
:1035100064902770712C022E02C0759467940A94EF
:10352000E2F7E1E06E227724FC01E956FB4FA4901C
:10353000B12C022E02C0B594A7940A94E2F7F1E0F0
:10354000AF22BB24FC01E957FB4FC490D12C02C031
:10355000D594C7942A95E2F721E0C222DD246114B4
:10356000710419F081EE0E942918A114B10419F018
:1035700086EE0E942918852D0E94EA18AB2819F0C2
:1035800086EE0E94BF06672819F081EE0E94BF06F2
:10359000CD2809F47ACF8CE26CCF81E00E948806B6
:1035A0000E94310601CF81E00E944D06F9CF82E0F2
:1035B000F5CF882351F08091060391E0892780930D
:1035C000060310921E010E949115F8019281992321
:1035D00009F40CC510920503F2E0EF16FCE5FF06B6
:1035E00008F4B1C126E1E2162CE5F20638F09701A5
:1035F0002A5F3C452930310508F0A5C10E94901191
:1036000090936B0280936A0230E1E3163CE5F30687
:1036100009F468C108F0E7C098E0E9169CE5F906EE
:1036200009F456C108F0B0C0F4E0EF16FCE5FF065F
:1036300009F446C108F092C032E0E3163CE5F30617
:1036400009F434C183E0E8168CE5F80609F434C1C6
:1036500060916A02F0906B0284E090E00E943C343A
:103660006F2D81E290E00E943C340E948D149CCE2C
:10367000882309F4AACF0E94B815A7CF882309F49C
:10368000A4CF0E94AF15A1CF882309F49ECF0E943A
:1036900008169BCF882309F498CF0E94041095CF79
:1036A000882309F492CF87E395E00E94B30E8FEF51
:1036B00090E7E2E081509040E040E1F700C0000078
:1036C00084CF882309F481CF0E94F416FFEF20E70E
:1036D00032E0F15020403040E1F7F0CF83EFE816C0
:1036E0008CE5F80661F1A0F4E8EDEE16ECE5FE06D7
:1036F00011F1F9EDEF16FCE5FF0669F127EDE21691
:103700002CE5F20609F061CF26E241EE61EE0FC032
:1037100035EFE3163CE5F306D1F0A8F027E245EEDD
:1037200066EE96EFE9169CE5F90609F04ECFC80162
:103730000E94071939CE27E245EE65EEF8CF26E262
:1037400041EE60EEF4CF27E245EE64EEF0CF26E2E4
:1037500041EE62EEECCF28E241E0EFCF80916A02C9
:10376000806196E0E9169CE5F90609F4A2C0809113
:103770006A028860E7E0EE16ECE5FE0608F499C000
:1037800080916A02806295C080916A028D7FFCE020
:10379000EF16FCE5FF0609F48CC078F480916A020C
:1037A0008C603AE0E3163CE5F30609F482C008F4C5
:1037B00093C080916A028E7F7CC080916A02877F6D
:1037C0009EE0E9169CE5F90609F473C080916A024F
:1037D0008B7FEFE0EE16ECE5FE0608F46AC0809100
:1037E0006A028F7E66C0FBEFEF16FCE5FF0609F468
:1037F0006BC068F533E1E3163CE5F30609F47AC0E3
:1038000090F491E1E9169CE5F90609F46FC0E2E154
:10381000EE16ECE5FE0609F01BCF0E948D14809198
:103820006A028F7746C0F5E1EF16FCE5FF0609F462
:1038300069C008F47DC080916B0281603AEFE316A5
:103840003CE5F30609F004CF80936B0201CF8FEFC4
:10385000E8168CE5F80609F451C0A0F480916B02DB
:103860008D7FEDEFEE16ECE5FE0671F380916B02B5
:103870008E7FFEEFEF16FCE5FF0630F380916B02C2
:103880008360E2CF21E0E2162DE5F20609F459C08B
:1038900008F444C060E082E0E8168DE5F80609F01F
:1038A000D7CE8EE090E00E943C34D2CE80916A0266
:1038B000816080936A02CCCE80916A028260F9CFE7
:1038C00080916A028460F5CF80916B028260BCCFE8
:1038D00080916A028064EDCF0E948D1480916A020B
:1038E0008068E7CF80916A028F7DE3CF80916A0282
:1038F0008F7BDFCF80916A02837FDBCF80916B0269
:103900008C7FA2CF80916A0282FB992790F921E0F7
:10391000922790FB82F990FB83F9CBCF80916B02C9
:10392000982F909591708E7F892B90FB81F98CCF89
:103930000E948D1490916A02892F97FB87F9805815
:10394000B8CF61E0AECF8091B502E6E1EE16ECE5CE
:10395000FE0609F059C38A7A91E009F490E0909349
:103960006C02811106C089E20E945E050E94240556
:103970001BCD85E3F9CF85E344C38091060391E035
:1039800089278093060310921E010E9491150CCD89
:103990004FEA55E168EB75E10E94150705CD48EB4C
:1039A00055E16FEA75E1F8CF4FEF55E168E076E158
:1039B000F3CF48E056E16FEF75E1EECF47EE55E10A
:1039C00063EF75E1E9CF43EF55E167EE75E1E4CFD1
:1039D0004FEC55E16BED75E1DFCF4BED55E16FEC51
:1039E00075E1DACF4BE156E161E176E1D5CF41E116
:1039F00056E16BE176E1D0CF81E00E949915D4CCFD
:103A000085E0FBCF8DE0F9CF82E1F7CFE114FCE553
:103A1000FF0609F447C02EEDE2162CE5F20609F484
:103A20004EC0F801E080F180992309F44BC0C70132
:103A30000E945013D82E682FC7010E94A005B7011D
:103A40008D2D0E94D1117C01882EF801D280A58095
:103A5000A2943FE0A3228091B0028770A1F0CD2C08
:103A6000DD2091F08F2D807F803421F080E28E0D5B
:103A7000883048F082E00E9470068091B002877022
:103A8000CC24C3948111C12C3F2C32942FE03222DC
:103A9000FBE0F31508F452C0E32DF0E0EB54F94CD1
:103AA0000C949C300E948D143FE78AE196E03150DF
:103AB00080409040E1F700C000000E94470F0E9444
:103AC000231472CCC7010E947705D82EB8CF2F2DB2
:103AD0002F70A22E8F2D807F19F0A29490EFA92233
:103AE000DD20C9F0AA2069F080E28E0D883010F048
:103AF00081100BC08091B502A82AA092B5020E9445
:103B000024058E2D0E94291819C08091B402A82A7C
:103B1000A092B402F4CF8E2D0E94BF06AA2071F0AD
:103B2000A09480E28E0D883010F081103DC080910D
:103B3000B502A822A092B5020E942405232D285088
:103B4000330B2430310510F40E94B306CC2009F465
:103B5000EFCB8091B00280FDEBCBF801128285950E
:103B6000859585950E948806C8010E9476198091E6
:103B7000B0028595859585950F900F900F900F90C9
:103B80000F90DF91CF911F910F91FF90EF90DF90F9
:103B9000CF90BF90AF909F908F907F906F905F90ED
:103BA0004F903F900C944D068091B402A822A092B1
:103BB000B402C2CF3F2D3F70932E8F2D807F803275
:103BC00019F0929480EF9822882071F081E0881695
:103BD00061F1DD20B9F1AA2071F1F801858180FF42
:103BE00090CF8F70858327C0DD2091F09091B60231
:103BF000892D892BA11003C00E94E3059FCFE1E02E
:103C0000AE12FACF981709F499CF8093B60296CFE7
:103C1000A11006C00E941E05892D0E94D8058ECFD6
:103C2000F1E0AF1609F48ACFF5CFDD2031F025E0C1
:103C30002A1508F483CF892DDFCF34E03A1508F434
:103C40007DCFEACFAA2041F3F9E38F1209C02FEF0D
:103C500033EF81E0215030408040E1F700C00000A8
:103C60008E2D0E94BF066ACF8F2D86958695837014
:103C700061F0813009F062CFC7019370D11002C0AA
:103C800090E080E00E94ED0559CFC7019370D110FC
:103C900002C090E080E00E94030650CF8F2D837019
:103CA00009F066C0D1104ACF8E2D82958695877017
:103CB000880F880F6E2D6F70462E512C712C612C41
:103CC000082E04C0440C551C661C771C0A94D2F7BD
:103CD00040E050E0BA01E4FE0FC04FE050E060E089
:103CE00070E004C0440F551F661F771F8A95D2F7F6
:103CF00040955095609570958F2D8695869583702B
:103D0000823019F1D8F48090B7029090B802A09058
:103D1000B902B090BA02813069F044295529662968
:103D20007729CB01BA01682179218A219B210E9440
:103D3000A90604CF482859286A287B28CB01BA0154
:103D40006429752986299729F2CF4429552966299E
:103D500077294090B7025090B8026090B9027090F5
:103D6000BA02CB01BA016425752586259725DFCFD8
:103D70008695DD2011F08F2D8170882309F4DECE29
:103D80008E2D829586958770880F880F6E2D6F70A7
:103D9000462E512C712C612C082E04C0440C551C4D
:103DA000661C771C0A94D2F740E050E0BA01E4FEAA
:103DB0000FC04FE050E060E070E004C0440F551FBA
:103DC000661F771F8A95D2F740955095609570953C
:103DD0008F2D869586958370823019F1D8F4809066
:103DE000FF0290900003A0900103B0900203813085
:103DF00069F04429552966297729CB01BA01682140
:103E000079218A219B210E94270698CE482859288B
:103E10006A287B28CB01BA0164297529862997294C
:103E2000F2CF44295529662977294090FF02509006
:103E300000036090010370900203CB01BA01642576
:103E4000752586259725DFCF9F2D9F70F92EDD20C4
:103E500029F0892F0E9488068E2DCECE8E2D0E94AD
:103E6000D8058F2D0E944D0669CE8E2DE2EF8E165D
:103E700009F453C0E81578F0F0EF8F1629F121EF1F
:103E8000821609F442C0DD2009F46BC0A11039CEBE
:103E90008F2D8F713FC033EF831609F443C094EF29
:103EA0008912F1CFDD2009F451C02F2D2F71F22E90
:103EB000822F0E94880638E0F39EC001112483609F
:103EC0008093B0028F2D26C0DD20D1F0E4E0EA150A
:103ED00008F434CE2F2D2F7161E070E080E090E087
:103EE00004C0660F771F881F991F2A95D2F740904C
:103EF000FF025090000360900103709002039FCF77
:103F0000F5E0FA1508F41ACEE5CF8F2D8F71DD207C
:103F100009F4A8CF0E94880611CE8F2D8F71DD2065
:103F2000C9F3A0CF60E070E0CB01DD2009F46BCFD6
:103F30002F2D2F7161E070E080E090E004C0660FEB
:103F4000771F881F991F2A95D2F75DCF81E00E94C5
:103F5000700681E08A1508F0F1CD82E00E947006BB
:103F6000EDCDAA2059F0893309F07ACE9FEFE3EF27
:103F7000F1E09150E040F040E1F770CE8F2D8F716D
:103F800071CFF0E1EF16FFE5FF0609F406CB21E162
:103F9000E2162FE5F20609F40ACBF701E856F1091B
:103FA000E930F10508F09ACBEF53F94C0C949C30B2
:103FB00030E1E3163FE5F30609F4F5CA91E1E916AD
:103FC0009FE5F90651F782E0EFCA85E0DE01119620
:103FD00001900D928A95E1F7F801228189819A81F9
:103FE0002111BDC90E947705F82EC1C9F6E1EF166F
:103FF000FCE5FF0609F015CD80916C028111BBCC68
:1040000089E20E945105B2CC8272F701E25CFC4564
:10401000E431F10508F0FACCE653F94C0C949C30ED
:104020001F93CF93DF9380917302807FA9F48091D7
:104030007002882389F08091A502D091740260916A
:104040006E0270916F02A0917102B0917202C62F40
:10405000C72316E0D81304C0DF91CF911F910895B4
:1040600090E0109711F0CF3F19F401968770F2CFCE
:10407000189F9001199F300D1124F901EB58FD4F45
:1040800041814713F2CF40814613EFCF4281411166
:10409000ECCF438154814A1B5B0B483C510528F708
:1040A000809173028F70806180937302F901E658EA
:1040B000FD4F80818F70806180838EE692E00E9448
:1040C0007619DF91CF911F910C94CE05AF92BF92DC
:1040D000CF92DF92EF92FF920F931F93CF93DF93D4
:1040E000CDB7DEB761970FB6F894DEBF0FBECDBF78
:1040F0008C0185E0F801DE011D9601900D928A95F4
:10410000E1F7F80180819181E2802EE6A22E22E083
:10411000B22E60917102709172026115710509F4FD
:104120003EC130916E0240916F02232F24232F3F16
:1041300009F435C1C380D480F0907002F601E61B0B
:10414000F70BFF2009F4FBC020917302522F507F20
:10415000E83CF10508F0BBC0511178C0FE2C4913B2
:1041600021C038131FC0E1101DC02F7020612093A3
:104170007302C5010E94761980917302F80185834C
:104180008F2D61960FB6F894DEBF0FBECDBFDF91C5
:10419000CF911F910F91FF90EF90DF90CF90BF9044
:1041A000AF900895CD2829F0282F29232F3F09F01B
:1041B00014C120E0F22FF170DF2E20FF3DC02091CE
:1041C000A5024091740256E0241315C08D879E8786
:1041D0008D859E850E949213292F22952F70223063
:1041E000F8F0243020F59F70F9F0F8019581907F68
:1041F000D9F4D12C1FC030E0529FF001539FF00D35
:104200001124EB58FD4F6181961306C0608186131F
:1042100003C06281E61210C02F5F3F4F2770D4CFDA
:104220009F7011F0882329F3805E883010F3C80155
:104230000E947619FD2CA4CFEE2009F4A1CF809125
:104240007302816080937302F12C9ACF491312C0DC
:10425000381310C0E1100EC0F8012583C8010E9478
:10426000761986E0F801AEE6B2E001900D928A95EB
:10427000E1F786CF8D879E878D859E850E949C1352
:10428000882309F1EE20F9F080917302803270F0FA
:1042900020916E0230916F0238872F831986DB865A
:1042A000CA868C87CE0107960E94761986E0F801AF
:1042B000AEE6B2E001900D928A95E1F70E941020DF
:1042C000FF24F3945DCFC8010E947619F9CF5111F4
:1042D0000AC08EE692E00E94761986E0F5011192FE
:1042E0008A95E9F7B1CF49130FC038130DC0E1101B
:1042F0000BC0F8012583C8010E94761986E0F501FC
:1043000011928A95E9F73CCF8D879E878D859E8592
:104310000E949C138823B9F2EE20A9F280917302C7
:10432000803220F220916E0230916F023A8329830D
:104330001B82DD82CC828E83CE010196B5CFE83C14
:10434000F105E0F6FE2CEE2009F4BDCF491316C0AE
:10435000381314C08091730280FD83CF982F907F13
:1043600009F47FCFF8018583903F09F477CF982F28
:10437000907F905F8F70892B858370CF8D879E870C
:104380008D859E850E949C13811190CF8091730230
:10439000816080937302C8010E947619F1CEEE20ED
:1043A00009F491CF8D879E878D859E850E949C13F1
:1043B000F82E882309F487CF86E0F801AEE6B2E054
:1043C00001900D928A95E1F780916E0290916F02B3
:1043D0000E9492130E941020D3CE21E02E25EACE17
:1043E0001F93CF93DF93CDB7DEB767970FB6F894DF
:1043F000DEBF0FBECDBF342F4B8B252F5C8B6D8B5B
:104400007E8B8F8B8E899F8961111092B4021A8ADC
:10441000198A3D872E876F87998B888B86E0FE01EE
:104420003D96DE01179601900D928A95E1F7CE0137
:1044300007960E946620882389F016E08091A502E5
:1044400090917402891349C067960FB6F894DEBF45
:104450000FBECDBFDF91CF911F91089586E0FE0181
:104460003796DE01119601900D928A95E1F78A85C3
:104470009B85892B11F38F81988589238F3FE9F2E2
:104480002091740230E0C90101968770992740910C
:10449000A5024817190671F40E948D141092740237
:1044A0001092A50286E0EEE6F2E0DF011D928A9509
:1044B000E9F7C3CF96E0929FD001939FB00D1124EE
:1044C000AB58BD4FFE01319601900D929A95E1F7E0
:1044D000809374020E94CE05B0CF819FC001112449
:1044E0008B589D4F0E946620882309F4ADCF8091A0
:1044F000A50290E00196877099278093A5029ECF30
:104500001F920F920FB60F9211240F931F932F93A8
:104510003F934F935F936F937F938F939F93AF934B
:10452000BF93EF93FF93CF93DF93CDB7DEB7AA97F7
:10453000DEBFCDBF1091E9001F709091EC00892F74
:10454000817090FD80E8182B1092E9008091F000B6
:10455000877F8093F00078948AEC92E02091F100BC
:10456000DC012D93CD01B2E0823D9B07B9F780912C
:10457000CB02833009F471C0B8F4813009F448C02B
:10458000823009F4B2C08091E80083FF3AC1809183
:10459000CA029091CB029A3008F033C1E92FF0E0C3
:1045A000E252F94C0C949C308A3009F48DC08B3067
:1045B00009F470C0893039F78091CA02813219F745
:1045C0008091CE029091CF02009711F00297D9F618
:1045D0008091E800877F8093E8008091E80082FF67
:1045E00037C09091F3008091F200029729F48091F6
:1045F000F1008B7F813021F48091F1008093BD0226
:104600008091E8008B778093E8000E94C103BBCFC4
:104610008091CA02813A09F0B6CF8091E800877F85
:104620008093E8008091CE029091CF02892B61F4B3
:1046300068E08EEB92E070E00E9473048091E800E5
:104640008B778093E8009FCF60E090E080E0F3CF2D
:104650008091C8028111C1CF96CF8091CA02813A60
:1046600009F091CF8091CE029091CF02892B09F071
:104670008ACF8091E800877F8093E8008091E800EE
:1046800080FFFCCF80911A018093F1008091E800B7
:104690008E77B9CF8091CA02813209F074CF8091B0
:1046A000CE029091CF02892B09F06DCF8091E80066
:1046B000877F8093E8000E94C1038091CC028093A1
:1046C0001A010E948D145FCF8091CA02813209F0D5
:1046D0005ACF8091E800877F8093E8000E94C10351
:1046E0008091CD028093BC024ECF8091CA02813A64
:1046F00009F049CF8091E800877F8093E80080919E
:10470000E80080FFFCCF8091BC02BECF803899F0DA
:10471000823809F076C08091CE028F70873008F021
:1047200070C08093E9008091EB0085FB882780F9B9
:104730001092E90006C08091C6029091C7029111C3
:1047400082609091E800977F9093E8008093F10059
:104750001092F1008091E8008E77D0C1882309F48F
:10476000BDC1823009F04DC08091CC028111C1C120
:104770008091CE028F702FEF280F263008F041C0B5
:104780008093E9002091EB0020FFB3C1933031F416
:104790008091EB0080628093EB00ABC19091EB00C5
:1047A00090619093EB0021E030E001C0220F8A95E8
:1047B000EAF72093EA001092EA008091EB0088600B
:1047C000EACF81111EC00091CC020F778091E300E7
:1047D0008078802B8093E3008091E800877F80932E
:1047E000E8000E94C1038091E80080FFFCCF809127
:1047F000E30080688093E30082E0011183E080930E
:10480000C8028091E80083FF0AC08091E800877F9A
:104810008093E8008091EB0080628093EB0010921F
:10482000E9008091F00088608093F0001F70109381
:10483000E900AA960FB6F894DEBF0FBECDBFDF9198
:10484000CF91FF91EF91BF91AF919F918F917F9108
:104850006F915F914F913F912F911F910F910F9009
:104860000FBE0F901F9018958058823050F62091FF
:10487000CC023091CD022C3DE3E03E07A1F583E070
:104880008A838AE289834FB7F894DE01139620E089
:104890003EE051E2E32FF0E050935700E49120FF17
:1048A00003C0E295EF703F5FEF708E2F90E0EA302B
:1048B000C0F0C7968D939D932F5F243159F74FBF5A
:1048C0008091E800877F8093E8006AE270E0CE0183
:1048D00001960E9473048091E8008B778093E80032
:1048E00090CFC096E7CF8091CE029091CF02432F18
:1048F00055274330510509F44AC078F54130510538
:1049000009F47AC08BE590E0EBE4F5E04230510524
:1049100009F077CF2091E800277F2093E8002091CD
:10492000D0023091D1028217930708F49C0140E035
:104930002115310509F065C0411163C08091E8007F
:1049400082FDC9CF8091C802882329F2853019F2EF
:104950008091E80083FFF2CFBECF4132510509F4C8
:104960003CC04232510509F04CCF8330910508F02C
:1049700048CFFC01EE0FFF1FE557FE4F0190F0817D
:10498000E02D88579E4FDC018C9190E01AC03327B0
:1049900021303105D1F02115310561F0223031058A
:1049A00009F02FCFE8EBF5E0E4918E2F90E0E8EBF3
:1049B000F5E007C0E8EFF5E0E4918E2F90E0E8EF36
:1049C000F5E0009709F41DCFA5CFECECF5E0E491FC
:1049D0008E2F90E0ECECF5E0F4CF8330910508F0F9
:1049E00010CF880F991FFC01EF56FE4F0190F08108
:1049F000E02D89E090E08ECF82E190E0E6EAF5E0FC
:104A000089CF8091C802882309F465CF853009F4E5
:104A100062CF8091E80083FD5ECF8091E80082FD47
:104A20008DCF8091E80080FF83CF9091F30080913B
:104A3000F2002115310519F08830910550F041E060
:104A4000089709F040E08091E8008E778093E800B5
:104A50006FCF44914093F100319621503109019676
:104A6000E8CF803809F0CDCE8091E800877F809331
:104A7000E8008091C9028093F1006CCE8111C1CE13
:104A80000091CC02023008F0BCCE8091E800877F14
:104A90008093E8000093C9020E94C103002311F033
:104AA00084E005C08091E30087FDFACF81E0809328
:104AB000C80242E061EC81E00E94E00342E261EC66
:104AC00084E00E94E00342E261EC82E00E94E003A5
:104AD00042E260EC83E00E94E00393CE8091CC023E
:104AE000813009F08ECE81E0933009F080E0809330
:104AF000C7021092E9008091E800877F8093E80068
:104B00000E94C1037ECE1F920F920FB60F92112406
:104B10002F933F934F935F936F937F938F939F93C5
:104B2000AF93BF93EF93FF938091E10082FF09C0A1
:104B30008091E20082FF05C08091E1008B7F80932D
:104B4000E1008091DA0080FF23C08091D80080FFCF
:104B50001FC08091DA008E7F8093DA008091D900A7
:104B600019BC80FF98C082E089BD09B400FEFDCF6A
:104B700081E08093C8028091BB02811109C00E942C
:104B800047030E9412048091E20084608093E20057
:104B90008091E10080FF17C08091E20080FF13C088
:104BA0008091E2008E7F8093E2008091E20080613C
:104BB0008093E2008091D80080628093D80019BC75
:104BC00085E08093C8028091E10084FF28C0809135
:104BD000E20084FF24C019BC82E089BD89B5982F0A
:104BE000917080FFFBCF8091D8008F7D8093D8009B
:104BF0008091E1008F7E8093E1008091E2008F7EC2
:104C00008093E2008091E20081608093E2008091D5
:104C1000C902882309F444C084E08093C8028091CB
:104C2000E10083FF27C08091E20083FF23C08091D1
:104C3000E100877F8093E10082E08093C8021092B8
:104C4000C9028091E1008E7F8093E1008091E200B3
:104C50008E7F8093E2008091E20080618093E20089
:104C600042E060E080E00E94E0038091F000886014
:104C70008093F000FF91EF91BF91AF919F918F9141
:104C80007F916F915F914F913F912F910F900FBE48
:104C90000F901F9018951092C8021092BB0278CF07
:104CA0008091E30087FD93E09093C802B8CF789499
:104CB0001F921FB61F9211248F939F93AF93BF93A0
:104CC00080910B0390910C03A0910D03B0910E0302
:104CD0000196A11DB11D80930B0390930C03A0932B
:104CE0000D03B0930E03BF91AF919F918F911F90D1
:104CF0001FBE1F9018951F921FB61F9211248F93ED
:104D00009F93AF93BF9380910B0390910C03A0915D
:104D10000D03B0910E034196A11DB11D80930B03AD
:104D200090930C03A0930D03B0930E03BF91AF912A
:104D30009F918F911F901FBE1F901895CDB7DEB722
:104D4000E5970FB6F894DEBF0FBECDBF84B7877F5F
:104D500084BF0FB6F894A895809160008861809315
:104D60006000109260000FBE80E880936100109296
:104D7000610085B7806885BF85B7806885BF0CE115
:104D800015E01093C5010093C401809A87988F980D
:104D90000E9447030E9412048091E2008460809385
:104DA000E2001093C5010093C40178948FEF9091B5
:104DB000C8028150943041F0AFE3BFE11197F1F7A1
:104DC00000C000008111F3CF82E084BD93E095BD67
:104DD0009DE797BD80936E0084E90E94EA0D83E30E
:104DE0000E94EA0D80E90E94EA0D81E90E94EA0D25
:104DF00085E90E94EA0D80E30E94EA0D82E30E94A9
:104E0000EA0D86E90E94EA0D1092110310920F0339
:104E100010921203109210030E948D0FBFEFE3ED6A
:104E2000F0E3B150E040F040E1F700C000000E9424
:104E30008D0F80910F0380FF2EC00E948D1483E0A0
:104E400093E00E94B30E8FE097E20197F1F700C064
:104E5000000088EE92E00E94B30EAFE0B7E2119737
:104E6000F1F700C000008DEC92E00E94B30EEFE07D
:104E7000F7E23197F1F700C000008AEC92E00E945F
:104E8000B30E87EC92E00E94B30E84EC92E00E9495
:104E9000B30E0E94470F90E080E00E9426348B3EC4
:104EA0009E4F11F00E9423141092D6028FEF9FEFB5
:104EB0009093F0028093EF029093F2028093F102BC
:104EC0009093F4028093F3029093F6028093F5029C
:104ED0009093F8028093F7029093FA028093F9027C
:104EE0009093FC028093FB029093FE028093FD025C
:104EF0001092110290932B0280932A0290932D021C
:104F000080932C0290932F0280932E029093310273
:104F10008093300290933302809332029093350253
:104F20008093340290933702809336029093390233
:104F30008093380290E080E00E9426348B3E9E4FA2
:104F400021F00E9423140E94251645E050E06CE1F8
:104F500070E086E093E00E940834809106038C7F25
:104F600011F40E94251682E290E00E9418348132EA
:104F700011F00C94FA2F83E290E00E9418348830EC
:104F800011F00C94FA2F84E290E00E9418348432DD
:104F900011F00C94FA2F90E080E00E9426348B3EB2
:104FA0009E4F11F00E94231482E090E00E9418347A
:104FB000809342020E94901190936B0280936A0248
:104FC00083E090E00E941834682F70E090E080E069
:104FD0000E94A90680E191E09093B2028093B10211
:104FE0008FE090E00E9420346093F5017093F60109
:104FF0008093F7019093F8018CE090E80E94C10E35
:105000004FE75AE186E0415050408040E1F700C050
:1050100000008091F50180FD1EC08CE090E80E94A8
:10502000C10E9FE7AAE1B6E09150A040B040E1F781
:1050300000C000008091F50181608093F5014091EE
:10504000F5015091F6016091F7017091F8018FE040
:1050500090E00E944E3484E293E00E94B30E81E21D
:1050600093E00E94B30E8EE193E00E94B30E74E0D1
:10507000272E71E0372E01E060E8B62E80910F03F5
:1050800091E0811101C090E090930A02882339F1E8
:105090000E94440E8091C80290910902981751F124
:1050A0008091C802813061F4109241020E94590E31
:1050B0000E944F0EEFEFF1E0F093B202E093B102E5
:1050C0008091C80280930902A0904102A110ACC057
:1050D00080910603837009F0C2C1889AC1C1809192
:1050E000100391E0811101C090E090930A0288239F
:1050F00089F2CECF8091C802811125C08091B10282
:105100009091B202009709F444C08450914009F490
:1051100040C00E94440E1092FE010E941204809131
:10512000E00081608093E0008091E0008E7F8093BA
:10513000E0000E948D143092B2022092B1020E94CF
:105140008D140E947E0E8091C802843009F0B8CF81
:105150002091B1023091B2022115310509F4B0CF8E
:105160008091F9012051314009F454C08111A8CF38
:105170000E944F0E0E94590E0093FE010E948D1452
:1051800080E191E09093B2028093B1020E948D146D
:1051900097CF80910A028111D6CF8091FE018111B3
:1051A000D2CF809141028111CECF4091FA0150912E
:1051B000FB016091FC017091FD012FB7F894809183
:1051C0000B0390910C03A0910D03B0910E032FBF20
:1051D000841B950BA60BB70B89389341A105B1052C
:1051E00008F4B1CF009341020E947E0E86E03B2D71
:1051F0000FB6F89430936100809361000FBE0E9457
:10520000D60460930D0270930E0280930F02909368
:10521000100299CF882309F453CF0E948D14309245
:10522000B2022092B102B2CF40910D0250910E0213
:1052300060910F02709110022FB7F89480910B03C8
:1052400090910C03A0910D03B0910E032FBF841B0E
:10525000950BA60BB70B893E9340A105B10580F0D5
:10526000889A8091640088608093640080916400D3
:1052700080648093640080916500886080936500FD
:1052800047E4C42E41E0D42E51E1E52E53E0F52E43
:1052900010E0D6018D916D01E82FE295EF70F0E0FE
:1052A00091A18F7041E050E001C0440F8A95EAF768
:1052B000892F842B81A382A1742F7095872382A3C9
:1052C000B2E0BA95F1F700C039E4832E31E0932EB5
:1052D00060E030E020E0D4017D904D01872D829583
:1052E0008F7090E0DC0190968C9190E0B72DBF70AC
:1052F00002C095958795BA95E2F780FD66C081E07A
:10530000022E01C0880F0A94EAF7682B2F5F3F4FE7
:105310002630310501F781A1782371A382A1482BA2
:1053200042A3F7018081681709F451C060838A2D78
:10533000182B41F00E944F0E0E94590E109241020C
:105340000E94440EFFEFEF1AFF0A29E431E02C150A
:105350003D0509F09ECF812F0E94EE0410910F03AE
:10536000F0900B02F116B1F0F1260E944F0E90E082
:1053700080E02F2D30E0582F482FB901082E02C0B1
:10538000759567950A94E2F760FD60C001968630D6
:10539000910589F710911003F0900C02F11219C0D9
:1053A0008FEF88AB89AB1AAA0E94E2048160782F44
:1053B0009CAB8BAB48A959A96AA98CA90E94F02182
:1053C0008091410281115ACE83CE80E09ECF80E051
:1053D000AFCFF1260E944F0E90E080E02F2D30E0FD
:1053E000582F482FB901082E02C0759567950A9469
:1053F000E2F77B01A1E0EA22FF2460FF2BC081E0FD
:105400005BA78CA7CC24C394D12C02C0CC0CDD1C90
:105410004A95E2F7812F90E08C219D2121E0892B94
:1054200009F420E02DA70E94E2048160782F9FA755
:105430008EA74BA55CA56DA58FA50E94F021F70155
:10544000E55FFD4F8081C826C082BACF80E0F12C95
:10545000E12CD6CF01968630910511F6A1CF889820
:105460000E948D0F81110E94D60410910F0380912C
:105470003F02811761F0812700E0CC24C394982F6C
:105480009C2109F086C00F5FCC0C0630C1F710914B
:10549000100380914002811709F423C1812700E0A5
:1054A000CC24C394982F9C2109F416C181E0EE24EA
:1054B000E394F12C09A38AA31C2181E009F480E084
:1054C0008BA30E94E2048160782F9DA38CA349A145
:1054D0005AA16BA18DA10E94F021F701E15CFD4F63
:1054E0008081C826C082111158C086E08E9DF001CF
:1054F0008F9DF00D1124E956FE4FE00FF11D8081C4
:105500008F3F09F04CC0B0901102E12EF12CC70181
:105510008B0D911D099764F188E090E06C01CE1825
:10552000DF08B7016E5E7D4FA60182E192E00E9426
:105530006231B701665E7D4FA6018AE192E00E946A
:105540006231A601440F551FB701660F771F665DD4
:105550007D4F8AE292E00E946231B7016E5D7D4F1D
:10556000A60182E292E00E946231BA94B0921102E6
:105570008091110290E0EDA9AE2FB0E09D01220FC5
:10558000331F2D553E4FAA0FBB1FBD016C557E4FDB
:105590001EC080E0F12CE12C8DCF10E0B4CF8DAB9C
:1055A00011E0B1CF90E0FC01EF5EFD4FD9015C91BD
:1055B0005183DB015C915187BDA9B18B880F991F85
:1055C000FC01EF5EFD4F128E118E91E0842F41E0C1
:1055D000480F911738F380931102C0903A02D0908F
:1055E0003B02E0903C02F0903D028FB7F89480902F
:1055F0000B0390900C03A0900D03B0900E038FBF8F
:10560000240135014C185D086E087F080E94D604FD
:1056100060933A0270933B0280933C0290933D0268
:10562000A0911102E1E1F2E02A2F30E04FEFC40E29
:10563000D41EE11CF11CC818D908EA08FB08A31302
:1056400061C02093110230910603132F137019F0DB
:10565000132F1695169520911E01213009F47CC058
:10566000222309F462C0223009F45BC3233009F419
:1056700061C30E94B30690913E02891721F00E94F7
:10568000B30680933E028091C802843009F0F3CCC7
:1056900083E08093E9008091E80082FFECCC809168
:1056A000E80090E085FF06C00E946603882309F4A5
:1056B00060C391E08091E8008B778093E8009923A4
:1056C00009F4D9CCE981E150E33108F0C1C3F0E03D
:1056D000E851F94C0C949C300F5FCC0C063009F06B
:1056E000E1CE8FEF8EA38FA318A60E94E204816003
:1056F000782F9AA789A74EA15FA168A58AA50E94C5
:10570000F0216BCF418D528D4A01B12CA12CC814D0
:10571000D904EA04FB0420F421503F5F32968FCF76
:10572000440D551D528F418FF8CF10921B0160938D
:10573000D2027093D3028093D4029093D50289E26F
:10574000E1E1F2E0A6EDB2E001900D928A95E1F779
:1057500081E080931E018DCF90910F0101E019131C
:105760000AC0832F837020910E0130E001E0821780
:10577000130609F400E0017000931D01183240F493
:10578000E12FF0E0E550F94C0C949C30011102C07F
:1057900000E025C040E060E080E00E943007F8CFE4
:1057A00080911B01E82EEE0CE80E73E0D72EDE0C84
:1057B0000D2D5BE05D1508F40BE06091070370911F
:1057C0000803809109030E94960AB62EA72E782E10
:1057D000F12CE016B0F001E09AE09D15C8F280913E
:1057E0001B018F5F80931B01011143CF82E08093E7
:1057F0001E0180911D0181113CCF11113ACF83E030
:10580000A8CFF701E956FE4F82A190911C01892390
:1058100031F0272D4B2D6A2DC7010E9432078FEFE3
:10582000E81AF80AD6CF80911B01E82EEE0CE80E9C
:1058300063E0D62EDE0C0D2DABE0AD1508F40BE0C9
:105840005090080360900903F09007036F2D752DA9
:10585000862D0E94960AB62EA72E782E60910A03F6
:105860006F0D752D862D0E94960A662E572E482E96
:10587000F12CE01630F001E0EAE0ED1508F0AFCFD2
:1058800087CFF701E956FE4F92A180911C01892331
:1058900059F0242D462D652D90FD03C0272D4B2D4D
:1058A0006A2DC7010E943207BFEFEB1AFB0AE1CF56
:1058B00080911B01E82EEE0C8E0D53E0D52ED80EF4
:1058C0000D2DFBE0FD1508F40BE0A090080370908F
:1058D000090320910A0340E4C42E3C2D329F312D50
:1058E0001124C32EE82EF12CE01630F001E05AE02E
:1058F0005D1508F074CF4CCFF701E956FE4F82A139
:1059000090911C018923B9F0F701EE0FFF1FE956B2
:10591000FE4F858582958F70609107038C9D600D89
:1059200011247A2D872D0E94960A462F282F672F43
:10593000C7010E9432074FEFE41AF40AD5CF8091D5
:105940001B01E82EEE0C8E0D23E0D22ED80E0D2D6D
:105950009BE09D1508F40BE0A090080370900903EC
:1059600020910A0390E4C92E3C2D329F312D112441
:10597000C32EE82EF12CE01608F0B8CFF701E95657
:10598000FE4F82A190911C018923D9F0F701EE0FFF
:10599000FF1FE956FE4F6485C69EB0011124B5E095
:1059A00075956795BA95E1F780910703680F7A2D91
:1059B000872D0E94960A462F282F672FC7010E9425
:1059C00032074FEFE41AF40AD6CF80911B01E82E7C
:1059D000EE0CE80E73E0D72EDE0C0D2D8BE08D154E
:1059E00008F40BE0B0900703F0900803A0900903BF
:1059F00060910A036695669566958091D2029091B2
:105A0000D3020E948C0A0E94F209805887FD81957A
:105A1000880F282F3A2D239F212D1124822F6B2DA3
:105A20007F2D0E94960AB62EA72E782EF12CE01616
:105A300008F05CCFF701E956FE4F82A190911C015E
:105A4000892331F0272D4B2D6A2DC7010E94320783
:105A50004FEFE41AF40AEBCF8DEF98E00E945F0C51
:105A600007C083ED98E0FACF84ED99E00E94890D9C
:105A7000082FB5CE85EB99E0F9CF8AE999E00E942D
:105A8000090DF6CF8EE799E0FACF81ED98E0E6CFE9
:105A900088EC98E0E3CF8FEB98E0E0CF86EA98E0DF
:105AA000DDCF88E998E0EBCF84E69AE0DFCF8DE6A2
:105AB00099E0DCCF89E599E0E2CF8BE698E00E949F
:105AC000A80CD6CF8DE398E0FACF86E098E0F7CF28
:105AD00001111EC060910A0320E1620F08F46FEF0C
